:10000000BFC00000D8C00000D6C00000D4C00000AF
:10001000D2C00000D0C00000CEC00000CCC00000A4
:10002000CAC00000C8C0000018C1000072C10000B2
:10003000C2C00000C0C00000BEC00000BCC00000C4
:10004000BAC00000B8C00000B6C00000B4C00000D4
:10005000B2C00000B0C00000AEC00000D5C00000BB
:10006000AAC00000A8C00000A6C00000A4C00000F4
:10007000A2C00000A0C000009EC000009CC0000004
:100080009AC0000098C0000096C0000094C0000014
:1000900092C0000090C000008EC000008CC0000024
:1000A0008AC0000088C0000086C000000001000077
:1000B000680112000200000701220022000029014D
:1000C0003F002100001901090003000003010401A1
:1000D000030904F1001002030904DD001212034BAE
:1000E000006500790062006F00610072006400002A
:1000F0000010034D00660067004E0061006D006552
:100100000000000403090409022200010100C032BA
:10011000090400000103010100092111010001226D
:100120003F000705830308000105010906A10175C9
:10013000019508050719E029E715002501810295B9
:1001400001750881039505750105081901290591B7
:10015000029501750391039506750815002568053C
:1001600007190029688100C0120100020000002068
:10017000C0167C04000101020001000001C106005C
:1001800011241FBECFEFDAE0DEBFCDBF11E0A0E04B
:10019000B1E0E2EDF5E002C005900D92A230B107AA
:1001A000D9F721E0A2E0B1E001C01D92AD30B20765
:1001B000E1F702D00CC224CF80E880936100109256
:1001C0006100569A5E982FD045D08823E9F32FEF2F
:1001D00083ED90E3215080409040E1F700C00000A3
:1001E00014BC85E085BD81E080936E0080910201A2
:1001F00082FD02C05E9801C05E9A8FE39FE1019785
:10020000F1F700C00000F2CF1F920F920FB60F92CD
:1002100011240F900FBE0F901F9018958091E80049
:1002200080FFFCCF089581E08093D70080EA80931F
:10023000D80082E189BD09B400FEFDCF80E980933A
:10024000D8001092E00010920C018CE08093E20044
:100250007894089580910C0108951F920F920FB623
:100260000F9211248F939F93EF93FF938091E1005E
:100270001092E10083FF0FC01092E90091E090938B
:10028000EB001092EC0092E29093ED0098E09093D6
:10029000F00010920C0182FF33C080910C01882382
:1002A00079F180910001882359F180910A018F5FD3
:1002B00080930A01837021F583E08093E9008091A7
:1002C000E80085FF1DC080910B018F5F80930B01BB
:1002D00090910001891314C010920B0180910901C3
:1002E0008093F1001092F100E3E0F1E081918093BE
:1002F000F10081E0E930F807C9F78AE38093E8006C
:10030000FF91EF919F918F910F900FBE0F901F90D3
:1003100018951F920F920FB60F921124EF92FF9231
:100320000F931F932F933F934F935F936F937F93FD
:100330008F939F93AF93BF93EF93FF93CF93DF93ED
:100340001F92CDB7DEB71092E9008091E80083FFDD
:1003500023C19091F1008091F1000091F100209172
:10036000F10010E0122B3091F1002091F100E32E0A
:10037000F12CF22A2091F1006091F10032EF3093DC
:10038000E800863009F049C08CEA90E04DED50E07D
:10039000FC01A591B4910A171B07D9F4FC01329610
:1003A000A591B491EA16FB06A1F4FC01349645919F
:1003B0005491FC013696849130E0362B2F3F310565
:1003C00019F010F02FEF30E0281708F4822F3EEFDD
:1003D0000CC0079648175907D9F6DEC0490F511DC2
:1003E000891B3093E8008823A9F09091E800292F19
:1003F0002570D9F392FDD3C0982F813208F090E296
:10040000FA01292F222351F364916093F1002150C6
:100410003196F8CF903249F3C2C0853041F48EEF67
:100420008093E800FBDE00680093E300B8C08930E9
:1004300039F591116BC000930C018EEF8093E800A9
:1004400041E08AE791E04093E9009C012F5F3F4F34
:10045000FC0154915093EB00552359F0F90124917C
:100460002093EC009C012D5F3F4F3196E491E09387
:10047000ED004F5F453011F0C901E5CF8EE141C07D
:10048000883039F4903809F041C0C8DE80910C0101
:1004900061C0811115C09983C1DE9981923851F4F0
:1004A000E092E9008091EB0085FB882780F91092AB
:1004B000E90001C080E08093F1001092F10068C073
:1004C000282F2D7F213011F5923001F5012B09F0F5
:1004D00063C02E2D2F779FEF920F943008F05CC0F1
:1004E0009EEF9093E8002093E900833009F454C014
:1004F00089E18093EB0081E090E001C0880F2A95AC
:10050000EAF78093EA001092EA0049C0EF2809F068
:1005100043C0913A11F5813091F480DE8091090158
:100520008093F1001092F100E3E0F1E089E091E0C6
:1005300021912093F1008E179F07D1F729C08230B7
:1005400021F46CDE8091000105C0833029F566DE60
:10055000809101018093F1001BC09132E9F4893050
:1005600061F48091E80082FFFCCF8091F1008093DC
:1005700002018BEF8093E8000BC08A3029F41093BE
:10058000000110920B0104C08B3031F40093010183
:100590008EEF8093E80003C081E28093EB000F9020
:1005A000DF91CF91FF91EF91BF91AF919F918F918B
:1005B0007F916F915F914F913F912F911F910F917B
:1005C000FF90EF900F900FBE0F901F901895F8942A
:0205D000FFCF5B
:0205D2007D01A9
:00000001FF
